:100000000C943E000C9448000C9448000C9448005A
:100010000C9448000C9448000C9448000C94480040
:100020000C9448000C9448000C9448000C94480030
:100030000C9448000C9448000C9448000C94480020
:100040000C9448000C9448000C9448000C94480010
:100050000C9448000C9448000C9448000C94480000
:100060000C9448000C9448000C9448000C944800F0
:100070000C9448000C9448000C94480011241FBEB6
:10008000CFEFD8E0DEBFCDBF0E94EF000C9401019E
:100090000C940000FC01A081B1814C91248181E08D
:1000A00090E0BC0102C0660F771F2A95E2F79B0122
:1000B000209524232C93A081B1812C91358101C0FE
:1000C000880F3A95EAF7809582238C930895FC0176
:1000D000A081B1812C91448181E090E0BC0102C0FB
:1000E000660F771F4A95E2F7262B2C93A081B181EA
:1000F0002C91358101C0880F3A95EAF780958223CB
:100100008C930895FC01A081B1814C91848121E000
:1001100030E0B90102C0660F771F8A95E2F7CB0184
:10012000809584238C93A081B1818C91958101C0AD
:10013000220F9A95EAF7822B8C930895CF93DF9341
:10014000D82FC92F0E9467008FE697E10197F1F73A
:1001500000C000008D2F9C2F0E9482008FE697E147
:100160000197F1F700C00000DF91CF910895FC01E5
:100170008081918182329105D1F481E290E0938374
:100180008283A281B3814C91848121E030E0B90166
:1001900002C0660F771F8A95E2F7CB01958101C0F7
:1001A000220F9A95EAF7822B842B8C93089585323F
:1001B000910519F484E290E0E2CF8832910519F4B8
:1001C00087E290E0DCCF8B97E1F68AE290E0D7CF30
:1001D000FC0171836083448325830C94B70000D0B5
:1001E00000D000D0CDB7DEB721E040E062E270E0A1
:1001F000CE0101960E94E800CE0101960E94820085
:06020000FFCFF894FFCFD0
:00000001FF
