:100000000C9440000C94F9000C9468000C94680067
:100010000C9468000C9468000C9468000C946800C0
:100020000C9468000C9468000C9468000C946800B0
:100030000C9468000C946A000C94EF000C94680017
:100040000C9468000C9468000C9468000C94680090
:100050000C9468000C9468000C9468000C94680080
:100060000C9468000C9468000C9468000C94680070
:100070000C9468000C9468000C946800850AA00A2F
:1000800011241FBECFEFD8E0DEBFCDBF11E0A0E04E
:10009000B1E0ECE5F8E102C005900D92A639B10798
:1000A000D9F721E0A6E9B1E001C01D92AD3BB2074E
:1000B000E1F710E0CFE3D0E004C02197FE010E94F9
:1000C000BC0ACE33D107C9F70E943E0A0C94210C1A
:1000D0000C9400001F920F920FB60F9211242F93D1
:1000E0003F934F935F936F937F938F939F93AF93C0
:1000F000BF93EF93FF9380919601909197010196A2
:10010000909397018093960180919801813051F1ED
:10011000B0F08230D1F1833009F44AC0FF91EF9101
:10012000BF91AF919F918F917F916F915F914F910F
:100130003F912F910F900FBE0F901F9018958091B7
:10014000960190919701883C910540F31092970198
:100150001092960181E0809398018FEA91E00E94CD
:10016000A304DCCF8091960190919701883C910582
:10017000A8F2109297011092960182E08093980164
:100180008FEA91E00E945004C9CF8091960190912E
:1001900097018436910510F2109297011092960102
:1001A00083E0809398018FEA91E00E948904B6CFA2
:1001B0008091960190919701883C910508F4AECF0B
:1001C000109297011092960184E0809398018FEA33
:1001D00091E00E94500481E0809300019FCF1F9224
:1001E0000F920FB60F9211240F900FBE0F901F9019
:1001F00018951F920F920FB60F9211242F933F93D1
:100200004F935F936F937F938F939F93AF93BF931E
:10021000EF93FF93809198018130D1F41092000107
:1002200084E0809398018FEA91E00E945004FF914E
:10023000EF91BF91AF919F918F917F916F915F915E
:100240004F913F912F910F900FBE0F901F901895D7
:1002500080919801833021F482E080930001E0CF07
:1002600080919801823019F781E08093000184E049
:1002700080939801DCCFEF92FF920F931F93CF935F
:10028000DF93CDB7DEB7A7970FB6F894DEBF0FBEEA
:10029000CDBF18E08FEA91E00E94A3042FE38DE028
:1002A00093E0215080409040E1F700C000008FEAC9
:1002B00091E00E9450042FE38DE093E021508040B4
:1002C0009040E1F700C00000115021F7CE01879661
:1002D0000E94A809CE0186960E9416058FEA91E039
:1002E0000E948904CE0187960E94CF09082FCE0173
:1002F00087960E94CF09182FF02EE82E402F70E02D
:1003000060E0CE0186960E94EB058FE097E20197B0
:10031000F1F700C00000412F61E070E0CE01869649
:100320000E94EB058FE097E20197F1F700C0000013
:1003300002E010E0CE010E151F0590F487960E9492
:10034000CF09482FB801CE0186960E94EB058FE0B9
:1003500097E20197F1F700C000000F5F1F4FEACF4F
:1003600001960E945A02CE0101960E94C103CE015D
:100370004F960E940C05CE0101960E942B0ACE01D9
:1003800086960E940C05A7960FB6F894DEBF0FBEA6
:10039000CDBFDF91CF911F910F91FF90EF90089506
:1003A000FC01608341830895EFE5FAEE3197F1F7A0
:1003B00000C00000FC019181913051F020F092309A
:1003C00071F080E0089589B182FB882780F9089553
:1003D00089B186958695869589278170089583B120
:1003E00082FB882780F991E089270895FC018181AB
:1003F000813079F020F08230C9F0789408955298D5
:10040000E89A909169009C7F8081892B8093690094
:10041000F4CF5398E99A90916900808144E0849FD9
:1004200090011124892F837F822BF0CF2298EA9AA2
:1004300090916900808140E1849F90011124892F6F
:100440008F7CF2CFFC018181813031F018F0823055
:1004500029F00895E89A0895E99A0895EA9A089586
:10046000FC018181813031F018F0823029F008954B
:10047000E8980895E9980895EA980895CF93DF934E
:10048000EC010E9430028981813061F028F08230D5
:1004900069F0DF91CF910895809169008C7F8093FE
:1004A0006900F7CF80916900837FF9CF809169005F
:1004B0008F7CF5CFCF93DF93EC010E942C0721E0D6
:1004C00040E062E270E0CE0140960E940505CE0158
:1004D00046960E94D40740E062E0CE014C960E940E
:1004E000D001CE014E960E94B5061AA219A21BA2F7
:1004F0001CA2DF91CF910895CF93DF93EC0160961A
:10050000CE010E9489042FEF82E597E021508040C0
:100510009040E1F700C00000CE010E9450042FEF90
:1005200082E597E0215080409040E1F700C0000054
:10053000CE010E9489042FEF82E597E02150804090
:100540009040E1F700C00000CE010E9450042FEF60
:1005500082E597E0215080409040E1F700C0000024
:10056000CE010E94A3042FEF82E597E02150804046
:100570009040E1F700C00000CE010E9450042FEF30
:1005800082E597E0215080409040E1F700C00000F4
:10059000CE010E94A3042FEF82E597E02150804016
:1005A0009040E1F700C00000CE010E9450042FEF00
:1005B00082E597E0215080409040E1F700C00000C4
:1005C000DF91CF9108951F93CF93DF93142F62365D
:1005D00009F479C0EC016336E0F4643409F448C0EE
:1005E00050F46230F1F14696693009F461C0DF9150
:1005F000CF911F910895683409F44BC0603609F417
:100600005CC06534A1F74096DF91CF911F910C94A7
:100610005004653609F463C0A0F4633609F459C088
:10062000643629F76096CE010E94A3042FEF83ED74
:1006300090E3215080409040E1F700C00000CE01DF
:10064000E3CF613C09F450C06F3FB9F1603C79F6EB
:100650004E960E9418079AA389A31BA381E08CA33E
:10066000C6CF642F70E0DF91CF911F910C94C60725
:10067000413031F44096DF91CF911F910C94A30447
:10068000423009F0B4CF4096DF91CF911F910C9486
:1006900089046696642FCE010E94E4072FE78AE161
:1006A00096E0215080409040E1F700C00000CE016C
:1006B000DF91CF911F910C941908CE01DF91CF915A
:1006C0001F910C946C07642FDF91CF911F910C94B4
:1006D0004C07642FDF91CF911F910C945C076096BB
:1006E000CE010E948904A2CF8CA1882369F08BA13E
:1006F000882351F069A17AA1CE014E960E941C0771
:100700008BA181508BA373CF1CA271CFBF92CF92CC
:10071000DF92EF92FF920F931F93CF93DF938C01A1
:10072000EC016E96CE010E94E3066C01E12CCE0135
:100730000E94E506F82ECE010E940307B82EE110B4
:1007400003C081E0F812F3CFCE010E941807C8164B
:10075000D90660F4C801DF91CF911F910F91FF90EE
:10076000EF90DF90CF90BF900C946C074B2D6F2DC6
:10077000C8010E94E3028FEFF81661F3EE24E394C0
:10078000D6CF8F929F92AF92BF92CF92DF92EF928D
:10079000FF920F931F93CF93DF938C017C012EE187
:1007A000E20EF11CC7010E94E3065C01680130E122
:1007B000C30ED11CC6010E945004812CD0E0912CA4
:1007C000C7010E9418078A159B0568F5C7010E949A
:1007D000E506C82FC7010E940307C83479F030F43A
:1007E000C23071F78110ECCF882EEACF8CE98C0FE4
:1007F000823030F7D111E4CFDC2FE2CF92E09915AF
:10080000F8F2992049F02FE33DE093E02150304089
:100810009040E1F700C00000482F68E4C8010E9442
:10082000E3029394CDCF2FEF33ED80E3215030409E
:100830008040E1F700C00000DD2329F040E06D2F8B
:10084000C8010E94E3029FEF23ED30E39150204066
:100850003040E1F700C00000C0E08C16A1F0D3E505
:10086000C6010E94BD04D150D9F7C6010E945004B0
:100870008FEF94E32CE0815090402040E1F700C0DE
:100880000000CF5FEACFDF91CF911F910F91FF90D2
:10089000EF90DF90CF90BF90AF909F908F90089592
:1008A000FC01A081B1818C91948121E030E0A9010B
:1008B00001C0440F9A95EAF7409548234C93A081D4
:1008C000B1818C91958101C0220F9A95EAF720950C
:1008D00028232C930895CF93DF93EC010E945004BA
:1008E000EA81FB8140818C8121E030E0B90102C0C6
:1008F000660F771F8A95E2F7CB019D8101C0220F19
:100900009A95EAF7822B809584238083DF91CF919B
:100910000895FC01A081B1818C91948121E030E0A7
:10092000A90101C0440F9A95EAF7842B8C93A0810A
:10093000B1818C91958101C0220F9A95EAF720959B
:1009400028232C930895FC01A081B1818C9194817E
:1009500041E050E09A0101C0220F9A95EAF72095F4
:1009600028232C93A081B1818C91958101C0440FE3
:100970009A95EAF7482B4C930895CF93DF93EC01B7
:100980000E9489048FE697E10197F1F700C000000B
:10099000CE010E94A3048FE697E10197F1F700C012
:1009A0000000DF91CF910895FC0180819181823216
:1009B0009105D1F481E290E093838283A281B38197
:1009C0004C91848121E030E0B90102C0660F771FAD
:1009D0008A95E2F7CB01958101C0220F9A95EAF73B
:1009E000822B842B8C9308958532910519F484E22F
:1009F00090E0E2CF8832910519F487E290E0DCCFF5
:100A00008B97E1F68AE290E0D7CFFC017183608397
:100A1000448325830C94D404089580EA80930101D3
:100A20001092B90080E28093B800089520E8FC019C
:100A300020830C940D05982F9370891305C0880F9F
:100A4000806A8093010108958FEF089594EA24E865
:100A50009093BC008091BC0087FFFCCF8091010186
:100A60008093BB002093BC008091BC0087FFFCCF2B
:100A70008091B900883161F784EA8093BC0080914D
:100A8000BC0087FFFCCF809101018093BB0084E80C
:100A90008093BC008091BC0087FFFCCF7093BB00AB
:100AA00084E88093BC008091BC0087FFFCCF6093FA
:100AB000BB0084E88093BC008091BC0087FFFCCF22
:100AC0008091BC0087FFFCCF84EA8093BC008091BA
:100AD000BC0087FFFCCF809101018F5F8093BB003A
:100AE00084E88093BC008091BC0087FFFCCF84E841
:100AF0008093BC008091BC0087FFFCCF8091BB003D
:100B0000FA01808384E98093BC0080E0089594EA30
:100B100034E89093BC008091BC0087FFFCCF8091AB
:100B200001018093BB003093BC008091BC0087FF23
:100B3000FCCF8091B900883161F784EA8093BC00D2
:100B40008091BC0087FFFCCF809101018093BB00A6
:100B500084E88093BC008091BC0087FFFCCF709339
:100B6000BB0084E88093BC008091BC0087FFFCCF71
:100B70006093BB0084E88093BC008091BC0087FF39
:100B8000FCCF84EA8093BC008091BC0087FFFCCF3F
:100B9000809101018F5F8093BB0084E88093BC004B
:100BA0008091BC0087FFFCCFFA0184EC222371F016
:100BB000213009F484E88093BC009091BC0097FF39
:100BC000FCCF9091BB0091932150F0CF84E98093AA
:100BD000BC0080E0089594EA24E89093BC008091E2
:100BE000BC0087FFFCCF809101018093BB00209364
:100BF000BC008091BC0087FFFCCF8091B900883198
:100C000061F784EA8093BC008091BC0087FFFCCF31
:100C1000809101018093BB0084E88093BC008091A7
:100C2000BC0087FFFCCF7093BB0084E88093BC00BE
:100C30008091BC0087FFFCCF6093BB0084E8809369
:100C4000BC008091BC0087FFFCCF4093BB0084E8D0
:100C50008093BC008091BC0087FFFCCF84E9809327
:100C6000BC0080E00895260F372F311DFC018081E4
:100C70008150990B862B972B2817390718F09C0168
:100C80002F5F3F4F822F861B24EA34E82093BC005D
:100C90009091BC0097FFFCCF909101019093BB0015
:100CA0003093BC009091BC0097FFFCCF9091B900AD
:100CB000983161F794EA9093BC009091BC0097FF43
:100CC000FCCF909101019093BB0094E89093BC00FD
:100CD0009091BC0097FFFCCF7093BB0094E8909379
:100CE000BC009091BC0097FFFCCF6093BB0094E8E0
:100CF0009093BC009091BC0097FFFCCFFA01982F15
:100D000024E8992359F031913093BB002093BC0023
:100D10003091BC0037FFFCCF9150F3CF94E9909312
:100D2000BC000895CF92DF92EF92FF920F931F9332
:100D3000CF936C017B018A01C22F2C2FA801B70130
:100D4000C6010E943306282F30E0E20EF31EC81BB6
:100D5000020F131FC111F1CF80E0CF911F910F91AE
:100D6000FF90EF90DF90CF900895CF93DF93EC0149
:100D70000E94160582E090E09A838983DF91CF91EB
:100D800008950F931F93CF93DF9300D0CDB7DEB7B5
:100D90008C011A821982AE014E5F5F4F70E060E0F5
:100DA0000E942605AE014F5F5F4F61E070E0C80111
:100DB0000E9426059A8189810F900F90DF91CF9133
:100DC0001F910F9108950C94C1060F931F93CF9319
:100DD000DF931F92CDB7DEB78C011982FC016181D0
:100DE0007281AE014F5F5F4F0E942605F80181813D
:100DF000928102969283818389810F90DF91CF91B6
:100E00001F910F910895CF93DF931F92CDB7DEB757
:100E10001982FC016181728161507109AE014F5FDD
:100E20005F4F0E94260589810F90DF91CF91089531
:100E3000FC01818192810895FC0172836183089590
:100E400080E0861741F0EFE1FEE43197F1F700C052
:100E500000008F5FF6CF0895CF93DF93EC0162E03F
:100E60000E94320830E020E045E0BE01CE01069647
:100E70000E94D60921E030E044E0BE01CE010B968D
:100E80000E94D60941E060E0CE010E945608CE01E2
:100E9000DF91CF910C948E091F93CF93DF93EC01D8
:100EA000142F06960E94F909612FCE010B96DF914F
:100EB000CF911F910C94F9091F93CF93DF93EC010D
:100EC000142F06960E94070A612FCE010B96DF9120
:100ED000CF911F910C94070ACF93DF93EC010696F4
:100EE0000E94150ACE010B96DF91CF910C94150A42
:100EF000CF93DF93EC010E946C07CE010E94920910
:100F0000CE010B960E94180ACE0106960E94180A7E
:100F1000CE01DF91CF910C949A091F93CF93DF9369
:100F2000EC01162F62E806960E94070A62E8CE01DD
:100F30000B960E94F909612FCE010E942007CE0175
:100F4000DF91CF911F910C946C070F931F93CF9358
:100F5000DF93EC01162F072F62E806960E94F9092D
:100F600062E8CE010B960E94070A812F902F67E05E
:100F700070E00E94A80A610FCE010E942007CE01F6
:100F8000DF91CF911F910F910C946C0790E080E05E
:100F90008617970741F0EFE4F3EC3197F1F700C0C3
:100FA00000000196F5CF0895CF93DF93EC0160E048
:100FB0000E943208239A219A299843E062E0CE01E8
:100FC000DF91CF910C945608CF93DF9323ED260F3A
:100FD000253260F5E62FEC01ED52FF0BEE0FFF1FFF
:100FE000EE0FFF1FEE5FFE4F20E030E040E054E4E4
:100FF00060817181828193810E94B40B9B01AC015D
:1010000060E074E284EF9AE40E94C20A0E94340B0A
:1010100024B52F7524BD24B5206424BDCE010E94C3
:101020005C09CE01DF91CF910C948E09DF91CF91B5
:10103000089524B52F7B24BD0C949209CB01BA01ED
:1010400020E030E040E054E40E94B40B9B01AC018E
:1010500060E074E284EF9AE40E94C20A0E94340BBA
:10106000CB010895FC0160831282118214821382E5
:101070001582613069F018F0623089F0089584E4D7
:1010800090E09283818385E490E094838383089544
:1010900080E890E09283818381E890E0F6CF80EB56
:1010A00090E09283818381EB90E0EFCFFC01458358
:1010B000A181B281613081F170F06230C9F1A1810A
:1010C000B2818C91806A8C930180F281E02D8081C5
:1010D0008F7A808308958081982F9D7F71F48C9101
:1010E00081608C93A181B2818C918D7F8C93A3813F
:1010F000B4818C91877F8C93E2CF813001F78C9102
:1011000081608C93A181B2818C918D7F8C93A3811E
:10111000B4818C91877EEFCF8081982F9D7F19F4C9
:101120008C918360E8CF813051F68C918360EECF53
:101130008081982F9D7F41F48C9183608C93A38153
:10114000B4818C918860D7CF813009F0B8CF8C9171
:1011500081608C93A381B4818C9188608C93A181F0
:10116000B2818C918D7F8C93A381B4818C918F7E81
:10117000C2CFFC016583808181111AC086E0809313
:101180006E008081813001F110F0823081F4A18104
:10119000B2818C918E7F8C93A181B2818C9182607F
:1011A0008C930380F481E02D8081877F8083089574
:1011B000813021F486E080936F00E3CF823009F71D
:1011C00086E080937000DDCFA181B2818C918C7F0D
:1011D0008C93A381B4818C9188608C930380F4817B
:1011E000E02D80818F7EE2CFFC018081823001F58D
:1011F000623009F44BC028F4662339F1613081F183
:101200000895633019F0643069F00895A381B481C2
:101210008C9186608C930380F481E02D80818E7F99
:10122000808308950380F481E02D80818760F8CF6A
:10123000623009F128F4662341F0613089F00895A5
:10124000633021F1643069F10895A381B4818C91F8
:1012500081608C930380F481E02D8081897FE0CFD1
:10126000A381B4818C9182608C930380F481E02D02
:1012700080818A7FD5CFA381B4818C9183608C9348
:101280000380F481E02D80818B7FCACFA381B4815C
:101290008C9184608C930380F481E02D80818C7F1D
:1012A000BFCFA381B4818C9185608C930380F4813E
:1012B000E02D80818D7FB4CFFC018081813039F0B9
:1012C00018F0823069F0089516BC67BD0895109239
:1012D00085001092840070938900609388000895BF
:1012E0001092B2006093B3000895FC0180818130B8
:1012F00039F018F0823069F0089516BC68BD089581
:10130000109285001092840070938B0060938A0085
:1013100008951092B2006093B4000895FC016581B5
:101320000C94F408DC011396ED91FC918081887F88
:1013300080830895CF93DF93EC010E949209E981A5
:10134000FA811082EB81FC811082DF91CF910895A8
:101350001092C5008FEC8093C4001092C00088E109
:101360008093C1008EE08093C20008958091C000F8
:1013700085FFFCCF6093C60008950F931F93CF9312
:10138000DF938C01EB016991662321F0C8010E9473
:10139000B609F9CFDF91CF911F910F9108958091F8
:1013A000C00087FFFCCF8091C6000895FC017183C7
:1013B0006083428334832383443021F48AB180657F
:1013C0008AB908954530E9F78AB1806AF9CFFC01FE
:1013D00083819481009729F470E0808191810C943D
:1013E0005C09019729F470E0808191810C94750962
:1013F00008954BB1FC01528121E030E001C0220F81
:101400005A95EAF7209524232BB90C94E709FC019F
:101410009BB1828121E030E001C0220F8A95EAF77A
:10142000922B9BB9CF010C94E70960E00C94E7097B
:10143000CF93DF93EC010E94150A8A81843031F446
:101440008AB18F7A8AB9DF91CF9108958530D9F723
:101450008AB18F75F7CFCF93DF93EC014C960E9442
:101460003E02CE0146960E949A09CE0140960E9405
:101470006B04CE01DF91CF910C947807CF93DF936B
:10148000CDB7DEB7A5970FB6F894DEBF0FBECDBFC0
:1014900062E089E991E00E94B90861EE74E089E9AF
:1014A00091E00E945C0989E991E00E948E098BEB32
:1014B00091E00E94F601789483B7817F83BF809189
:1014C0009801843039F083B7816083BF889583B7F2
:1014D0008E7FF4CF80910001882319F0813021F0B4
:1014E000FFCF0E943B01FCCFCE0101960E945A0221
:1014F000CE0101960E948603CE014F960E940C05F4
:10150000CE0101960E942B0AEBCF8FE991E00E9459
:101510002C0721E040E062E270E08FEA91E00E9457
:10152000050585EB91E00E94D40740E062E08BEB7B
:1015300091E00E94D00161E089E991E00C943208C9
:1015400089E991E00E949A098FE991E00C942B0AB5
:10155000AA1BBB1B51E107C0AA1FBB1FA617B707D9
:1015600010F0A61BB70B881F991F5A95A9F78095F5
:101570009095BC01CD010895EE0FFF1F0590F491E9
:10158000E02D09940E94D60A0C947A0B0E94730BEA
:1015900058F00E946C0B40F029F45F3F29F00C9446
:1015A000630B51110C94AE0B0C94690B0E948B0BC6
:1015B00068F39923B1F3552391F3951B550BBB2782
:1015C000AA2762177307840738F09F5F5F4F220FC7
:1015D000331F441FAA1FA9F335D00E2E3AF0E0E8BE
:1015E00032D091505040E695001CCAF72BD0FE2F08
:1015F00029D0660F771F881FBB1F2617370748079C
:10160000AB07B0E809F0BB0B802DBF01FF27935853
:101610005F4F3AF09E3F510578F00C94630B0C94A9
:10162000AE0B5F3FE4F3983ED4F3869577956795CC
:10163000B795F7959F5FC9F7880F911D9695879588
:1016400097F90895E1E0660F771F881FBB1F6217A7
:1016500073078407BA0720F0621B730B840BBA0B65
:10166000EE1F88F7E09508950E94930B88F09F572E
:1016700098F0B92F9927B751B0F0E1F0660F771FB6
:10168000881F991F1AF0BA95C9F714C0B13091F0AC
:101690000E94AD0BB1E008950C94AD0B672F782F2D
:1016A0008827B85F39F0B93FCCF386957795679571
:1016B000B395D9F73EF490958095709561957F4FDD
:1016C0008F4F9F4F089597F99F6780E870E060E023
:1016D00008959FEF80EC089500240A9416161706CB
:1016E00018060906089500240A9412161306140613
:1016F00005060895092E0394000C11F4882352F076
:10170000BB0F40F4BF2B11F460FF04C06F5F7F4F2D
:101710008F4F9F4F089557FD9058440F551F59F014
:101720005F3F71F04795880F97FB991F61F09F3FCE
:1017300079F087950895121613061406551FF2CFF7
:101740004695F1DF08C0161617061806991FF1CF47
:1017500086957105610508940895E894BB2766276E
:101760007727CB0197F908950E94C70B0C947A0B49
:101770000E946C0B38F00E94730B20F0952311F03F
:101780000C94630B0C94690B11240C94AE0B0E9407
:101790008B0B70F3959FC1F3950F50E0551F629F1F
:1017A000F001729FBB27F00DB11D639FAA27F00DBA
:1017B000B11DAA1F649F6627B00DA11D661F829FE1
:1017C0002227B00DA11D621F739FB00DA11D621FC6
:1017D000839FA00D611D221F749F3327A00D611DE3
:1017E000231F849F600D211D822F762F6A2F1124C5
:1017F0009F5750409AF0F1F088234AF0EE0FFF1FF8
:10180000BB1F661F771F881F91505040A9F79E3F4E
:10181000510580F00C94630B0C94AE0B5F3FE4F326
:10182000983ED4F3869577956795B795F795E795A4
:101830009F5FC1F7FE2B880F911D9695879597F9AD
:10184000089510E0CFE3D0E004C0FE010E94BC0A7E
:0C1850002196C034D107C9F7F894FFCFEF
:10185C0001A00000DC427B14E942A4F0F6425CCF0C
:10186C0002430A970A437BD412435C8F1B435CCF21
:10187C002443299C2E43000039430000444366A6B0
:10188C004F4300005C437B146943A4F07643A4D01F
:10189C0082430A978A437BD49243A4909B43A4D05F
:1018AC00A443719DAE43B8FEB8430000C44366A682
:1018BC00CF430000DC437B14E943A4F0F64300D093
:1018CC000244AE970A441FD5124400901B44A4D086
:1018DC002444719D2E445CFF38445CFF43440AA7AA
:0618EC004F4400005C44C3
:00000001FF
