:100000000C943E000C9453000C9453000C94530039
:100010000C9453000C9453000C9453000C94530014
:100020000C9453000C9453000C9453000C94530004
:100030000C9453000C9453000C9453000C945300F4
:100040000C9453000C9453000C9453000C945300E4
:100050000C9453000C9453000C9453000C945300D4
:100060000C9453000C9453000C9453000C945300C4
:100070000C9453000C9453000C94530011241FBE95
:10008000CFEFD8E0DEBFCDBF11E0A0E0B1E0E8E106
:10009000F3E102C005900D92A639B107D9F70E948D
:1000A000A9070C948A090C940000CF93DF93EC010C
:1000B0000E948E0421E040E062E270E0CE014096B2
:1000C0000E94CC02CE0146960E944605CE014C9677
:1000D0000E94A50118A21F8E19A21AA2DF91CF912A
:1000E0000895CF93DF93D82FC92F0E942E052FEFAD
:1000F00082E597E0215080409040E1F700C0000089
:100100008D2F9C2F0E9431052FEF82E597E0215023
:1001100080409040E1F700C000008D2F9C2F0E948E
:100120002E052FEF82E597E0215080409040E1F7C7
:1001300000C000008D2F9C2F0E9431052FEF82E51B
:1001400097E0215080409040E1F700C000008D2FE3
:100150009C2F0E942B052FEF82E597E021508040D5
:100160009040E1F700C000008D2F9C2F0E943105C8
:100170002FEF82E597E0215080409040E1F700C0EA
:1001800000008D2F9C2F0E942B052FEF82E597E01A
:10019000215080409040E1F700C000008D2F9C2F3F
:1001A0000E9431052FEF82E597E02150804090407A
:1001B000E1F700C00000DF91CF9108951F93CF9326
:1001C000DF93EC01142F623609F456C0D0F4653485
:1001D00009F442C058F4693009F449C0643471F13B
:1001E000623031F1DF91CF911F9108956834C9F1E8
:1001F00060566230B8F7CE01DF91CF911F910C9419
:100200002905603C09F44CC068F46436D9F16536C0
:1002100009F43FC0633631F7642FDF91CF911F910E
:100220000C942205613C09F444C06F3F21F3DACFFE
:10023000642FDF91CF911F910C943A05413029F43E
:10024000DF91CF911F910C942B05423059F6DF912D
:10025000CF911F910C942E05DF91CF911F910C949B
:100260003105642FDF91CF911F910C943405DF91FC
:10027000CF911F910C943705642FDF91CF911F917F
:100280000C941F05642F70E0DF91CF911F910C94A7
:100290002505642F70E0DF91CF911F910C94270505
:1002A0004C960E94080298A38F8F19A381E08AA31D
:1002B00099CF8AA1811569F089A1811551F06F8DBF
:1002C00078A1CE014C960E940C0289A1815089A38D
:1002D00089CF1AA287CFAF92BF92DF92EF92FF929F
:1002E0000F931F93CF93DF938C017C018CE1E80E79
:1002F000F11CC7010E94D3015C01D0E003C0D1E032
:10030000C130D9F7C7010E94D501C82FC7010E948B
:10031000F301D82ED11599F3C7010E940802A8163F
:10032000B90638F04D2D6C2FC8010E94DE00CF3F7A
:1003300049F7C801DF91CF911F910F91FF90EF9086
:10034000DF90BF90AF900C942905CF93DF93EC0121
:100350000E94DD0282E090E09A838983DF91CF9151
:1003600008950F931F93CF93DF9300D0CDB7DEB7DF
:100370008C011A821982AE014E5F5F4F60E070E01F
:100380000E94EC02AE014F5F5F4F61E070E0C80178
:100390000E94EC029A8189810F900F90DF91CF919A
:1003A0001F910F9108950C94B1010F931F93CF9358
:1003B000DF930F92CDB7DEB78C011982FC0161810A
:1003C0007281AE014F5F5F4F0E94EC02F8018181A4
:1003D000928102969283818389810F90DF91CF91E0
:1003E0001F910F910895CF93DF930F92CDB7DEB792
:1003F000FC0119826181728161507109AE014F5F08
:100400005F4F0E94EC0289810F90DF91CF91089598
:10041000FC01818192810895FC01728361830895BA
:10042000FC01A081B1814C91248181E090E0BC016C
:1004300002C0660F771F2A95E2F79B0120952423BF
:100440002C93A081B1812C91358101C0880F3A9500
:10045000EAF7809582238C930895CF93DF93EC0184
:100460000E941002EA81FB8140818C8121E030E012
:10047000B90102C0660F771F8A95E2F7CB019D8113
:1004800001C0220F9A95EAF7822B809584238083FE
:10049000DF91CF910895FC01A081B1812C9144811D
:1004A00081E090E0BC0102C0660F771F4A95E2F739
:1004B000262B2C93A081B1812C91358101C0880F0E
:1004C0003A95EAF7809582238C930895FC01A081E8
:1004D000B1814C91848121E030E0B90102C0660F06
:1004E000771F8A95E2F7CB01809584238C93A081B6
:1004F000B1818C91958101C0220F9A95EAF7822BE8
:100500008C930895CF93DF93D82FC92F0E944B026D
:100510008FE697E10197F1F700C000008D2F9C2F27
:100520000E9466028FE697E10197F1F700C0000094
:10053000DF91CF910895FC018081918182329105F4
:10054000D1F481E290E093838283A281B3814C91C4
:10055000848121E030E0B90102C0660F771F8A95DF
:10056000E2F7CB01958101C0220F9A95EAF7822B21
:10057000842B8C9308958532910519F484E290E0E0
:10058000E2CF8832910519F487E290E0DCCF8B97B7
:10059000E1F68AE290E0D7CFFC0171836083448367
:1005A00025830C949B02089580EA809300011092A9
:1005B000B90080E28093B8000895FC0180E8808350
:1005C000CF010C94D402843028F4880F806A809381
:1005D000000108958FEF0895FA0194EA24E89093BA
:1005E000BC008091BC0087FFFCCF8091000180930C
:1005F000BB002093BC008091BC0087FFFCCF8091A2
:10060000B900883161F784EA8093BC008091BC0016
:1006100087FFFCCF809100018093BB0084E880932A
:10062000BC008091BC0087FFFCCF7093BB0084E8C6
:100630008093BC008091BC0087FFFCCF6093BB001F
:1006400084E88093BC008091BC0087FFFCCF809140
:10065000BC0087FFFCCF84EA8093BC008091BC0083
:1006600087FFFCCF809100018F5F8093BB0084E8FF
:100670008093BC008091BC0087FFFCCF84E880930E
:10068000BC008091BC0087FFFCCF8091BB008083C1
:1006900084E98093BC0080E0089594EA34E8909364
:1006A000BC008091BC0087FFFCCF8091000180934B
:1006B000BB003093BC008091BC0087FFFCCF8091D1
:1006C000B900883161F784EA8093BC008091BC0056
:1006D00087FFFCCF809100018093BB0084E880936A
:1006E000BC008091BC0087FFFCCF7093BB0084E806
:1006F0008093BC008091BC0087FFFCCF6093BB005F
:1007000084E88093BC008091BC0087FFFCCF84EA22
:100710008093BC008091BC0087FFFCCF80910001DA
:100720008F5F8093BB0084E88093BC008091BC0005
:1007300087FFFCCF84EC211105C084E98093BC00C5
:1007400080E00895213009F484E88093BC00909102
:10075000BC0097FFFCCFFA019091BB009193215010
:10076000AF01E9CF94EA24E89093BC008091BC00EB
:1007700087FFFCCF809100018093BB002093BC00D9
:100780008091BC0087FFFCCF8091B900883161F770
:1007900084EA8093BC008091BC0087FFFCCF8091ED
:1007A00000018093BB0084E88093BC008091BC0072
:1007B00087FFFCCF7093BB0084E88093BC008091DE
:1007C000BC0087FFFCCF6093BB0084E88093BC0033
:1007D0008091BC0087FFFCCF4093BB0084E88093EE
:1007E000BC008091BC0087FFFCCF84E98093BC00F3
:1007F00080E00895CF93DF93FB01260F372F311D43
:10080000EC0188818150990B862B9F2B2817390783
:1008100018F09C012F5F3F4F822F8E1B24EA34E893
:100820002093BC009091BC0097FFFCCF90910001F9
:100830009093BB003093BC009091BC0097FFFCCF1D
:100840009091B900983161F794EA9093BC0090912F
:10085000BC0097FFFCCF909100019093BB0094E8FF
:100860009093BC009091BC0097FFFCCFF093BB002D
:1008700094E89093BC009091BC0097FFFCCFE0936C
:10088000BB0094E89093BC009091BC0097FFFCCF14
:10089000982F24E8911106C094E99093BC00DF9151
:1008A000CF910895DA013D913093BB002093BC00B5
:1008B0003091BC0037FFFCCF9150AD01EBCFDF9200
:1008C000EF92FF920F931F93CF93DF93D82ED92FE0
:1008D0007B018A01C22F2C2FA801B7018D2D9D2FDE
:1008E0000E94FA03E80EF11CC81B080F111DC1116C
:1008F000F2CF80E0DF91CF911F910F91FF90EF90A9
:10090000DF90089580E0861301C00895EFE1FEE4D2
:100910003197F1F700C000008F5FF5CFCF93DF93E1
:10092000EC0162E00E94070621E030E045E0BE01F4
:10093000CE0106960E94530720E030E044E0BE015D
:10094000CE010B960E94530741E060E0CE010E9469
:100950002B06CE01DF91CF910C9439071F93CF93D3
:10096000DF93EC01142F06960E947607612FCE01CB
:100970000B96DF91CF911F910C9476071F93CF9325
:10098000DF93EC01142F06960E948507612FCE019C
:100990000B96DF91CF911F910C948507CF93DF9336
:1009A000EC0106960E949307CE010B96DF91CF9142
:1009B0000C949307CF93DF93EC010E94CE04CE01F9
:1009C0000E943D07CE010B960E949607CE01069627
:1009D0000E949607CE01DF91CF910C9445071F939B
:1009E000CF93DF93EC01162F61E906960E948507ED
:1009F00061E9CE010B960E947607612FCE010E941D
:100A00008204CE01DF91CF911F910C94CE041F93ED
:100A1000CF93DF93EC01162F61E906960E947607CB
:100A200061E9CE010B960E948507612FCE010E94DD
:100A30008204CE01DF91CF911F910C94CE04462FFA
:100A40000C94AE04462F0C94BE040C9407050C9431
:100A5000EF040C94CE0440960C94660240960C94DD
:100A60004B0240960C94100246960C944D05469607
:100A70000C94BB0580E0861301C00895EFE4F3EC0D
:100A80003197F1F700C000008F5FF5CF60E00E9462
:100A90000706239A259A2D9808954F925F926F9298
:100AA0007F928F929F92AF92BF92CF92DF92EF92FE
:100AB000FF920F931F93CF93DF938C01E62F83ED6B
:100AC000860F853208F046C0ED52FF0BEE0FFF1F78
:100AD000EE0FFF1FEF5FFE4F20E030E040E054E4F8
:100AE00060817181828193810E941D092B013C01EB
:100AF000A301920160E074E284EF9AE40E942B0863
:100B000020E030E040E85FE34B015C01C501B40147
:100B10000E94BE076B017C01C701B6010E949D08BF
:100B20007B0163E0C8010E946E0610926E00B7015F
:100B3000C8010E94070784B5806484BDC8010E9473
:100B400039072FEF83ED90E3215080409040E1F78B
:100B500000C00000DF91CF911F910F91FF90EF90A7
:100B6000DF90CF90BF90AF909F908F907F906F90CD
:100B70005F904F9008959C0194B59F7B94BDC901EF
:100B80000C943D074F925F926F927F928F929F924B
:100B9000AF92BF92CF92DF92EF92FF92CF93DF930B
:100BA000F42FE52F20E030E040E054E48F2F9E2F1B
:100BB000DB01BC01CD010E941D092B013C01A301F9
:100BC000920160E074E284EF9AE40E942B0820E036
:100BD00030E040E85FE34B015C01C501B4010E94D5
:100BE000BE076B017C01C701B6010E949D08CB01C5
:100BF000DF91CF91FF90EF90DF90CF90BF90AF90BB
:100C00009F908F907F906F905F904F900895FC0120
:100C1000608312821182148213821582613069F01E
:100C2000623091F0611108C084E490E09283818386
:100C300085E490E094838383089580E890E0928334
:100C4000818381E890E0F6CF80EB90E0928381830E
:100C500081EB90E0EFCFFC014583A181B28161156A
:100C600071F0613071F1A181B2818C91806A8C93B5
:100C70000180F281E02D80818F7A808308958081C8
:100C8000982F9D7F91110EC08C9181608C93A181D2
:100C9000B2818C918D7F8C93A381B4818C91877F5D
:100CA0008C93E1CF8130F9F68C9181608C93A18196
:100CB000B2818C918D7F8C93A381B4818C91877E3E
:100CC000EFCF8081982F9D7F911103C08C9183601D
:100CD000E7CF813041F68C918360EDCFFC016583D5
:100CE000808181111AC086E080936E0080818130FE
:100CF00001F18D7F811110C0A181B2818C918E7F15
:100D00008C93A181B2818C9182608C930380F48159
:100D1000E02D8081877F80830895813021F486E0F3
:100D200080936F00E3CF823009F786E080937000F4
:100D3000DDCFA181B2818C918C7F8C93A381B48112
:100D40008C9188608C930380F481E02D80818F7E6C
:100D5000E2CFFC018081823041F5623009F441C06C
:100D600068F4A381B481611128C08C9181608C9357
:100D70000380F481E02D8081897F0FC0633019F0FA
:100D8000643069F00895A381B4818C9186608C935E
:100D90000380F481E02D80818E7F8083089503801D
:100DA000F481E02D80818760F8CF623079F0C8F25D
:100DB0006330B9F0643001F108958C9182608C93B6
:100DC0000380F481E02D80818A7FE7CFA381B48105
:100DD0008C9183608C930380F481E02D80818B7FE4
:100DE000DCCFA381B4818C9184608C930380F481E7
:100DF000E02D80818C7FD1CFA381B4818C918560DF
:100E00008C930380F481E02D80818D7FC6CFFC011F
:100E10008081813039F0823071F0811110C016BCB0
:100E200067BD089510928500109284007093890028
:100E30006093880008951092B2006093B300089503
:100E4000FC018081813039F0823071F0811110C055
:100E500016BC68BD089510928500109284007093AE
:100E60008B0060938A0008951092B2006093B400E2
:100E70000895FC0165810C94A906DC011396ED919F
:100E8000FC918081887F80830895CF93DF93EC016C
:100E90000E943D07E981FA811082EB81FC8110827A
:100EA000DF91CF910895FC01718360834283348385
:100EB0002383443021F48AB180658AB9089545308E
:100EC000E9F78AB1806AF9CFFC01838194810097A8
:100ED00029F470E0808191810C940707019729F42F
:100EE00070E0808191810C9420070895FC012BB162
:100EF000328181E090E001C0880F3A95EAF7809551
:100F000082238BB9CF010C946407FC018BB19281D1
:100F100021E030E001C0220F9A95EAF7822B8BB9CD
:100F2000CF010C94640760E00C946407CF93DF93C7
:100F3000EC010E9493078A81843031F48AB18F7A60
:100F40008AB9DF91CF9108958530D9F78AB18F752D
:100F5000F7CFCDB7DEB7A3970FB6F894DEBF0FBEBD
:100F6000CDBFCE0101960E945500CE0101960E9490
:100F70007100CE0101960E946B01FFCF5058BB2734
:100F8000AA270E94D6070C94E3080E94D50838F0DF
:100F90000E94DC0820F039F49F3F19F426F40C94E9
:100FA000D2080EF4E095E7FB0C94CC08E92F0E94E0
:100FB000F40858F3BA17620773078407950720F0FF
:100FC00079F4A6F50C9416090EF4E0950B2EBA2FC1
:100FD000A02D0B01B90190010C01CA01A00111243F
:100FE000FF27591B99F0593F50F4503E68F11A16EB
:100FF000F040A22F232F342F4427585FF3CF46957C
:1010000037952795A795F0405395C9F77EF41F169D
:10101000BA0B620B730B840BBAF09150A1F0FF0F67
:10102000BB1F661F771F881FC2F70EC0BA0F621F53
:10103000731F841F48F4879577956795B795F79543
:101040009E3F08F0B0CF9395880F08F09927EE0FD8
:101050009795879508950E943F080C94E3080E9495
:10106000DC0858F00E94D50840F029F45F3F29F0D1
:101070000C94CC0851110C9417090C94D2080E94BE
:10108000F40868F39923B1F3552391F3951B550B9D
:10109000BB27AA2762177307840738F09F5F5F4F4B
:1010A000220F331F441FAA1FA9F335D00E2E3AF08A
:1010B000E0E832D091505040E695001CCAF72BD0A2
:1010C000FE2F29D0660F771F881FBB1F26173707F3
:1010D0004807AB07B0E809F0BB0B802DBF01FF2725
:1010E00093585F4F3AF09E3F510578F00C94CC082E
:1010F0000C9417095F3FE4F3983ED4F386957795F7
:101100006795B795F7959F5FC9F7880F911D9695DD
:10111000879597F90895E1E0660F771F881FBB1F39
:10112000621773078407BA0720F0621B730B840BE6
:10113000BA0BEE1F88F7E09508950E94FC0888F02E
:101140009F5798F0B92F9927B751B0F0E1F0660F8B
:10115000771F881F991F1AF0BA95C9F714C0B130CC
:1011600091F00E941609B1E008950C941609672FBA
:10117000782F8827B85F39F0B93FCCF386957795FB
:101180006795B395D9F73EF49095809570956195E4
:101190007F4F8F4F9F4F089597F99F6780E870E0CA
:1011A00060E008959FEF80EC089500240A941616DD
:1011B000170618060906089500240A941216130645
:1011C000140605060895092E0394000C11F48823D3
:1011D00052F0BB0F40F4BF2B11F460FF04C06F5FEF
:1011E0007F4F8F4F9F4F089557FD9058440F551FC5
:1011F00059F05F3F71F04795880F97FB991F61F099
:101200009F3F79F087950895121613061406551F0F
:10121000F2CF4695F1DF08C0161617061806991F7B
:10122000F1CF86957105610508940895E894BB2770
:1012300066277727CB0197F908950E9430090C940F
:10124000E3080E94D50838F00E94DC0820F09523BE
:1012500011F00C94CC080C94D20811240C941709AA
:101260000E94F40870F3959FC1F3950F50E0551F4D
:10127000629FF001729FBB27F00DB11D639FAA27EB
:10128000F00DB11DAA1F649F6627B00DA11D661F3A
:10129000829F2227B00DA11D621F739FB00DA11D5B
:1012A000621F839FA00D611D221F749F3327A00D15
:1012B000611D231F849F600D211D822F762F6A2FB1
:1012C00011249F5750409AF0F1F088234AF0EE0F16
:1012D000FF1FBB1F661F771F881F91505040A9F743
:1012E0009E3F510580F00C94CC080C9417095F3F89
:1012F000E4F3983ED4F3869577956795B795F7957F
:10130000E7959F5FC1F7FE2B880F911D96958795F6
:0813100097F90895F894FFCF4E
:10131800A00000DC427B14E942A4F0F6425CCF0254
:10132800430A970A437BD412435C8F1B435CCF2448
:1013380043299C2E43000039430000444366A64FCE
:101348004300005C437B146943A4F07643A4D08235
:10135800430A978A437BD49243A4909B43A4D0A486
:1013680043719DAE43B8FEB8430000C44366A6CFA0
:10137800430000DC437B14E943A4F0F64300D002A9
:1013880044AE970A441FD5124400901B44A4D024AD
:1013980044719D2E445CFF38445CFF43440AA74FC8
:0613A8004400005C44005B
:00000001FF
