:100000000C943F000C9467000C9467000C946700FC
:100010000C9467000C9467000C9467000C946700C4
:100020000C9467000C9467000C9467000C946700B4
:100030000C9467000C9467000C9467000C946700A4
:100040000C9467000C9467000C9467000C94670094
:100050000C9467000C9467000C9467000C94670084
:100060000C9467000C9467000C9467000C94670074
:100070000C9467000C9467000C946700A409112489
:100080001FBECFEFD8E0DEBFCDBF15E0A0E0B1E0EE
:10009000E2E6F7E102C005900D92A837B107D9F763
:1000A00025E0A8E7B5E001C01D92A937B207E1F746
:1000B00010E0CFE3D0E004C02197FE010E94A80920
:1000C000CE33D107C9F70E948F090C94AF0B0C9463
:1000D0000000CF93DF93EC010E94D00421E040E0C8
:1000E00062E270E0CE0140960E940503CE01469682
:1000F0000E94B205CE014C960E94B90118A21F8E33
:1001000019A21AA2DF91CF910895CF93DF93D82F30
:10011000C92F0E949A052FEF82E597E02150804079
:100120009040E1F700C000008D2F9C2F0E949D059C
:100130002FEF82E597E0215080409040E1F700C02A
:1001400000008D2F9C2F0E949A052FEF82E597E0EB
:10015000215080409040E1F700C000008D2F9C2F7F
:100160000E949D052FEF82E597E02150804090404E
:10017000E1F700C000008D2F9C2F0E9497052FEF04
:1001800082E597E0215080409040E1F700C00000F8
:100190008D2F9C2F0E949D052FEF82E597E0215027
:1001A00080409040E1F700C000008D2F9C2F0E94FE
:1001B00097052FEF82E597E0215080409040E1F7CE
:1001C00000C000008D2F9C2F0E949D052FEF82E51F
:1001D00097E0215080409040E1F700C00000DF919F
:1001E000CF9108951F93CF93DF93EC01142F6236C4
:1001F00009F456C0D0F4653409F442C058F46930AB
:1002000009F449C0643471F1623031F1DF91CF916A
:100210001F9108956834C9F160566230B8F7CE0175
:10022000DF91CF911F910C949505603C09F44CC06F
:1002300068F46436D9F1653609F43FC0633631F7A6
:10024000642FDF91CF911F910C948E05613C09F4CE
:1002500044C06F3F21F3DACF642FDF91CF911F911C
:100260000C94A605413029F4DF91CF911F910C9495
:100270009705423059F6DF91CF911F910C949A0562
:10028000DF91CF911F910C949D05642FDF91CF9149
:100290001F910C94A005DF91CF911F910C94A305A1
:1002A000642FDF91CF911F910C948B05642F70E028
:1002B000DF91CF911F910C949105642F70E0DF9135
:1002C000CF911F910C9493054C960E941C0298A309
:1002D0008F8F19A381E08AA399CF8AA1811569F034
:1002E00089A1811551F06F8D78A1CE014C960E94A5
:1002F000200289A1815089A389CF1AA287CFAF920A
:10030000BF92DF92EF92FF920F931F93CF93DF93F1
:100310008C017C018CE1E80EF11CC7010E94E70111
:100320005C01D0E003C0D1E0C130D9F7C7010E9421
:10033000E901C82FC7010E940702D82ED11599F3F1
:10034000C7010E941C02A816B90638F04D2D6C2F6B
:10035000C8010E94F200CF3F49F7C801DF91CF9159
:100360001F910F91FF90EF90DF90BF90AF900C9492
:100370009505CF93DF93EC010E941F0382E090E08C
:100380009A838983DF91CF9108950F931F93CF9321
:10039000DF9300D0CDB7DEB78C011A821982AE018F
:1003A0004E5F5F4F60E070E00E942E03AE014F5F32
:1003B0005F4F61E070E0C8010E942E039A8189813D
:1003C0000F900F90DF91CF911F910F9108950C9492
:1003D000C5010F931F93CF93DF930F92CDB7DEB775
:1003E0008C011982FC0161817281AE014F5F5F4F08
:1003F0000E942E03F801818192810296928381836B
:1004000089810F90DF91CF911F910F910895CF9324
:10041000DF930F92CDB7DEB7FC0119826181728143
:1004200061507109AE014F5F5F4F0E942E038981B9
:100430000F90DF91CF910895FC0181819281089501
:10044000FC01728361830895CF93DF93EC0185E90A
:1004500091E00E942209E881F98140812C8181E0AC
:1004600090E0BC0102C0660F771F2A95E2F79B015E
:10047000209524232083E881F98120813D8101C0DA
:10048000880F3A95EAF7809582238083DF91CF9198
:100490000895CF93DF93EC0185EA91E00E94220951
:1004A000CE010E942402EA81FB8140818C8121E0FF
:1004B00030E0B90102C0660F771F8A95E2F7CB01E1
:1004C0009D8101C0220F9A95EAF7822B80958423A3
:1004D0008083DF91CF910895CF93DF93EC018BEB75
:1004E00091E00E942209E881F98120814C8181E01C
:1004F00090E0BC0102C0660F771F4A95E2F7262BF9
:100500002083E881F98120813D8101C0880F3A95DF
:10051000EAF7809582238083DF91CF910895CF936E
:10052000DF93EC018BEC91E00E942209E881F981D4
:1005300040818C8121E030E0B90102C0660F771F55
:100540008A95E2F7CB01809584238083E881F98145
:1005500080819D8101C0220F9A95EAF7822B8083CA
:10056000DF91CF910895CF93DF93D82FC92F0E94A9
:100570006C028FE697E10197F1F700C000008D2F24
:100580009C2F0E948F028FE697E10197F1F700C040
:100590000000DF91CF910895CF93DF93EC018DEDB3
:1005A00091E00E9422098881998182329105E1F4CB
:1005B00081E290E09B838A83EA81FB8140818C8188
:1005C00021E030E0B90102C0660F771F8A95E2F79B
:1005D000CB019D8101C0220F9A95EAF7822B842BD3
:1005E0008083DF91CF9108958532910519F484E2DB
:1005F00090E0E0CF8832910519F487E290E0DACFFD
:100600008B97D1F68AE290E0D5CFCF93DF93EC01C0
:10061000798368834C832D838DEE91E00E942209BB
:10062000CE01DF91CF910C94CC02089580EA8093A3
:1006300000011092B90080E28093B8000895FC0197
:1006400080E88083CF010C941603843028F4880F4F
:10065000806A8093000108958FEF0895FA0194EA6B
:1006600024E89093BC008091BC0087FFFCCF809170
:1006700000018093BB002093BC008091BC0087FFE9
:10068000FCCF8091B900883161F784EA8093BC0087
:100690008091BC0087FFFCCF809100018093BB005C
:1006A00084E88093BC008091BC0087FFFCCF7093EE
:1006B000BB0084E88093BC008091BC0087FFFCCF26
:1006C0006093BB0084E88093BC008091BC0087FFEE
:1006D000FCCF8091BC0087FFFCCF84EA8093BC00F4
:1006E0008091BC0087FFFCCF809100018F5F8093D9
:1006F000BB0084E88093BC008091BC0087FFFCCFE6
:1007000084E88093BC008091BC0087FFFCCF80917F
:10071000BB00808384E98093BC0080E0089594EA64
:1007200034E89093BC008091BC0087FFFCCF80919F
:1007300000018093BB003093BC008091BC0087FF18
:10074000FCCF8091B900883161F784EA8093BC00C6
:100750008091BC0087FFFCCF809100018093BB009B
:1007600084E88093BC008091BC0087FFFCCF70932D
:10077000BB0084E88093BC008091BC0087FFFCCF65
:100780006093BB0084E88093BC008091BC0087FF2D
:10079000FCCF84EA8093BC008091BC0087FFFCCF33
:1007A000809100018F5F8093BB0084E88093BC0040
:1007B0008091BC0087FFFCCF84EC211105C084E947
:1007C0008093BC0080E00895213009F484E8809390
:1007D000BC009091BC0097FFFCCFFA019091BB0048
:1007E00091932150AF01E9CF94EA24E89093BC00A3
:1007F0008091BC0087FFFCCF809100018093BB00FB
:100800002093BC008091BC0087FFFCCF8091B90091
:10081000883161F784EA8093BC008091BC0087FF37
:10082000FCCF809100018093BB0084E88093BC00E2
:100830008091BC0087FFFCCF7093BB0084E880935D
:10084000BC008091BC0087FFFCCF6093BB0084E8B4
:100850008093BC008091BC0087FFFCCF4093BB001D
:1008600084E88093BC008091BC0087FFFCCF84E9C2
:100870008093BC0080E00895CF93DF93FB01260FA7
:10088000372F311DEC0188818150990B862B9F2BCE
:100890002817390718F09C012F5F3F4F822F8E1BBE
:1008A00024EA34E82093BC009091BC0097FFFCCF71
:1008B000909100019093BB003093BC009091BC00DC
:1008C00097FFFCCF9091B900983161F794EA90932B
:1008D000BC009091BC0097FFFCCF909100019093D9
:1008E000BB0094E89093BC009091BC0097FFFCCFB4
:1008F000F093BB0094E89093BC009091BC0097FFEC
:10090000FCCFE093BB0094E89093BC009091BC00B6
:1009100097FFFCCF982F24E8911106C094E990939B
:10092000BC00DF91CF910895DA013D913093BB0077
:100930002093BC003091BC0037FFFCCF9150AD013B
:10094000EBCFDF92EF92FF920F931F93CF93DF9342
:10095000D82ED92F7B018A01C22F2C2FA801B701D5
:100960008D2D9D2F0E943C04E80EF11CC81B080F22
:10097000111DC111F2CF80E0DF91CF911F910F9136
:10098000FF90EF90DF90089580E0861301C00895F6
:10099000EFE1FEE43197F1F700C000008F5FF5CF83
:1009A000CF93DF93EC0162E00E949A0621E030E0F1
:1009B00045E0BE01CE0106960E94690820E030E0C5
:1009C00044E0BE01CE010B960E94690884E092E0EB
:1009D0000E94220941E060E0CE010E94D306CE01D0
:1009E000DF91CF910C9436080F931F93CF93DF9331
:1009F000EC01062F142F87E192E00E942209602F5C
:100A0000CE0106960E94BC08612FCE010B96DF91A5
:100A1000CF911F910F910C94BC080F931F93CF930C
:100A2000DF93EC01062F142F8AE292E00E94220944
:100A3000602FCE0106960E94DF08612FCE010B9633
:100A4000DF91CF911F910F910C94DF08CF93DF932B
:100A5000EC018EE392E00E942209CE0106960E94EC
:100A6000FB08CE010B96DF91CF910C94FB08CF933E
:100A7000DF93EC018CE492E00E942209CE010E94F7
:100A80002605CE010E944508CE010B960E940A0958
:100A9000CE0106960E940A09CE01DF91CF910C94F7
:100AA00056081F93CF93DF93EC01162F84E692E054
:100AB0000E94220961E9CE0106960E94DF0861E9E1
:100AC000CE010B960E94BC08612FCE010E94C40487
:100AD000CE01DF91CF911F910C9426051F93CF93E8
:100AE000DF93EC01162F86E792E00E94220961E96C
:100AF000CE0106960E94BC0861E9CE010B960E94C9
:100B0000DF08612FCE010E94C404CE01DF91CF9196
:100B10001F910C942605462F0C94F404462F0C9438
:100B20000D050C946E050C9451050C942605409609
:100B30000C948F0240960C946C0240960C94240204
:100B400046960C94B70546960C944E0680E08613A4
:100B500001C00895EFE4F3EC3197F1F700C0000015
:100B60008F5FF5CF60E00E949A06239A08952F9236
:100B70003F924F925F926F927F928F929F92AF922D
:100B8000BF92CF92DF92EF92FF920F931F93CF937A
:100B9000DF9300D000D0CDB7DEB789839A8383ED91
:100BA000860F853208F063C0062F10E084E0689F4E
:100BB000F0011124E35BFF4F20E030E040E054E41B
:100BC00060817181828193810E940D0B2B013C0118
:100BD000A301920160E074E284EF9AE40E941B0A90
:100BE00020E030E040E85FE34B015C01C501B40167
:100BF0000E94AE096B017C01C701B6010E948D0AFB
:100C00007B01B80189E892E00E945009EB82FC82E6
:100C10006B817C8180E992E00E94500963E08981C8
:100C20009A810E94340710926E00B70189819A81DF
:100C30000E94E80784B5806484BD89819A810F9001
:100C40000F900F900F90DF91CF911F910F91FF9018
:100C5000EF90DF90CF90BF90AF909F908F907F905C
:100C60006F905F904F903F902F900C9436080F90AC
:100C70000F900F900F90DF91CF911F910F91FF90E8
:100C8000EF90DF90CF90BF90AF909F908F907F902C
:100C90006F905F904F903F902F9008959C0194B576
:100CA0009F7B94BDC9010C9445084F925F926F924F
:100CB0007F928F929F92AF92BF92CF92DF92EF92EC
:100CC000FF92CF93DF93F42FE52F20E030E040E058
:100CD00054E48F2F9E2FDB01BC01CD010E940D0B30
:100CE0002B013C01A301920160E074E284EF9AE4DD
:100CF0000E941B0A20E030E040E85FE34B015C010A
:100D0000C501B4010E94AE096B017C01C701B601A7
:100D10000E948D0ACB01DF91CF91FF90EF90DF9081
:100D2000CF90BF90AF909F908F907F906F905F908B
:100D30004F900895CF93DF93EC0168831A82198254
:100D40001C821B821D8286E992E00E942209888112
:100D5000813099F08230E1F081110CC089EA92E093
:100D60000E94220984E490E09A83898385E490E0DC
:100D70009C838B83DF91CF91089589EB92E00E9451
:100D8000220980E890E09A83898381E890E0F0CF9F
:100D900089EC92E00E94220980EB90E09A8389839B
:100DA00081EB90E0E5CF0F931F93CF93DF93EC019E
:100DB000162F042F89ED92E00E942209602F70E027
:100DC00083EF92E00E9450090D83111589F01130D4
:100DD000B9F1E981FA818081806A8083E981FA81B1
:100DE00080818F7A8083DF91CF911F910F91089539
:100DF00088E093E00E9422098881E981FA81982F96
:100E00009D7F91110EC0808181608083E981FA818C
:100E100080818D7F8083EB81FC818081877F8083CF
:100E2000D8CF8130B1F6808181608083E981FA81F9
:100E300080818D7F8083EB81FC818081877EEFCFF5
:100E400089E293E00E9422098881E981FA81982F42
:100E50009D7F911103C080818360E1CF813009F0D3
:100E6000B8CF80818360E6CF1F93CF93DF93EC01EF
:100E7000162F81E493E00E942209612F70E083EF36
:100E800092E00E9450091D838881811120C08BE56A
:100E900093E00E94220986E080936E008881813071
:100EA00051F18D7F81110FC0E981FA8180818E7FA0
:100EB0008083E981FA81808182608083EB81FC817B
:100EC0008081877F8083DF91CF911F91089581304A
:100ED00041F483E893E00E94220986E080936F004A
:100EE000DDCF8230D9F68BEA93E00E94220986E0BA
:100EF00080937000D3CFE981FA8180818C7F8083D9
:100F0000EB81FC81808188608083EB81FC81808122
:100F10008F7ED8CFFC018081823041F5623009F4A8
:100F200041C068F4A381B481611128C08C918160B3
:100F30008C930380F481E02D8081897F0FC0633022
:100F400019F0643069F00895A381B4818C918660B2
:100F50008C930380F481E02D80818E7F80830895BF
:100F60000380F481E02D80818760F8CF623079F0D2
:100F7000C8F26330B9F0643001F108958C91826059
:100F80008C930380F481E02D80818A7FE7CFA38159
:100F9000B4818C9183608C930380F481E02D8081F7
:100FA0008B7FDCCFA381B4818C9184608C93038090
:100FB000F481E02D80818C7FD1CFA381B4818C918D
:100FC00085608C930380F481E02D80818D7FC6CF76
:100FD0000F931F93CF93DF938C01EB0183ED93E08D
:100FE0000E945009F8018081813059F0823091F0DF
:100FF000811102C016BCC7BDDF91CF911F910F9127
:1010000008951092850010928400D0938900C093B7
:101010008800F2CF1092B200C093B300EDCF0F93CF
:101020001F93CF93DF938C01EB0185EF93E00E9438
:101030005009F8018081813059F0823091F081119E
:1010400002C016BCC8BDDF91CF911F910F910895CA
:101050001092850010928400D0938B00C0938A0078
:10106000F2CF1092B200C093B400EDCFCF93DF93D4
:10107000EC01688170E087E194E00E9450096D8185
:10108000CE01DF91CF910C948A07CF93DF93EC01CF
:10109000688170E086E294E00E945009EB81FC8157
:1010A0008081887F8083DF91CF910895CF93DF93F4
:1010B000EC0185E394E00E942209CE010E944508DC
:1010C000E981FA811082EB81FC811082DF91CF915E
:1010D0000895CF93FC01C42FD901718360834283AB
:1010E000348323838DE494E0AB2B11F08EE594E000
:1010F0000E9422096C2F70E080E794E00E94500962
:10110000C43029F48AB180658AB9CF910895C53079
:10111000E1F78AB1806AF8CF0F931F93CF93DF93E3
:10112000EC01062F10E08B819C81892B91F480E8E3
:1011300094E0B8010E9450098B819C81009761F472
:10114000B80188819981DF91CF911F910F910C9403
:10115000E8078FEA94E0EDCF019749F4B801888160
:101160009981DF91CF911F910F910C940F08DF911E
:10117000CF911F910F9108951F93CF93DF93EC01AF
:10118000162F70E08B819C81892BB1F48FED94E058
:101190000E9450092BB13A8181E090E001C0880F94
:1011A0003A95EAF7809582238BB9612FCE01DF91C2
:1011B000CF911F910C948C0887E095E0E9CF0F93B5
:1011C0001F93CF938C01C62F70E080E395E00E94BF
:1011D00050098BB1F801928121E030E001C0220F6B
:1011E0009A95EAF7822B8BB96C2FC801CF911F918A
:1011F0000F910C948C08CF93DF93D82FC92F84E5DF
:1012000095E00E94220960E08D2F9C2FDF91CF9105
:101210000C948C08CF93DF93EC018FE595E00E944E
:101220002209CE010E94FB088A81843031F48AB100
:101230008F7A8AB9DF91CF9108958530D9F78AB135
:101240008F75F7CFBC0188E795E00E9474096CE5C3
:1012500074E088E795E00C947409CF93DF9300D095
:1012600000D000D0CDB7DEB74AE0BE016F5F7F4F40
:101270000E947A0BBE016F5F7F4F88E795E00E9466
:1012800074096CE574E088E795E00E9474090F909A
:101290000F900F900F900F900F90DF91CF910895C6
:1012A000CF93DF93D62FC72FBC0188E795E00E942C
:1012B00074098D2F9C2FDF91CF910C942D091092E2
:1012C000C5008FEC8093C4001092C00088E1809329
:1012D000C1008EE08093C20008958091C00085FF18
:1012E000FCCF6093C60008950F931F93CF93DF93B5
:1012F000182F092FEB016991611105C0DF91CF9182
:101300001F910F910895812F902F0E946D09F3CFA7
:101310008091C00087FFFCCF8091C6000895CDB7B3
:10132000DEB7A3970FB6F894DEBF0FBECDBFCE01D8
:1013300001960E946900CE0101960E948500CE01AF
:1013400001960E947F01FFCF88E795E00C945F092A
:10135000EE0FFF1F0590F491E02D09945058BB2724
:10136000AA270E94C6090C94D30A0E94C50A38F025
:101370000E94CC0A20F039F49F3F19F426F40C9413
:10138000C20A0EF4E095E7FB0C94BC0AE92F0E9418
:10139000E40A58F3BA17620773078407950720F029
:1013A00079F4A6F50C94060B0EF4E0950B2EBA2FEB
:1013B000A02D0B01B90190010C01CA01A00111245B
:1013C000FF27591B99F0593F50F4503E68F11A1607
:1013D000F040A22F232F342F4427585FF3CF469598
:1013E00037952795A795F0405395C9F77EF41F16BA
:1013F000BA0B620B730B840BBAF09150A1F0FF0F84
:10140000BB1F661F771F881FC2F70EC0BA0F621F6F
:10141000731F841F48F4879577956795B795F7955F
:101420009E3F08F0B0CF9395880F08F09927EE0FF4
:101430009795879508950E942F0A0C94D30A0E94CD
:10144000CC0A58F00E94C50A40F029F45F3F29F009
:101450000C94BC0A51110C94070B0C94C20A0E9404
:10146000E40A68F39923B1F3552391F3951B550BC7
:10147000BB27AA2762177307840738F09F5F5F4F67
:10148000220F331F441FAA1FA9F335D00E2E3AF0A6
:10149000E0E832D091505040E695001CCAF72BD0BE
:1014A000FE2F29D0660F771F881FBB1F261737070F
:1014B0004807AB07B0E809F0BB0B802DBF01FF2741
:1014C00093585F4F3AF09E3F510578F00C94BC0A58
:1014D0000C94070B5F3FE4F3983ED4F38695779521
:1014E0006795B795F7959F5FC9F7880F911D9695FA
:1014F000879597F90895E1E0660F771F881FBB1F56
:10150000621773078407BA0720F0621B730B840B02
:10151000BA0BEE1F88F7E09508950E94EC0A88F058
:101520009F5798F0B92F9927B751B0F0E1F0660FA7
:10153000771F881F991F1AF0BA95C9F714C0B130E8
:1015400091F00E94060BB1E008950C94060B672FF2
:10155000782F8827B85F39F0B93FCCF38695779517
:101560006795B395D9F73EF4909580957095619500
:101570007F4F8F4F9F4F089597F99F6780E870E0E6
:1015800060E008959FEF80EC089500240A941616F9
:10159000170618060906089500240A941216130661
:1015A000140605060895092E0394000C11F48823EF
:1015B00052F0BB0F40F4BF2B11F460FF04C06F5F0B
:1015C0007F4F8F4F9F4F089557FD9058440F551FE1
:1015D00059F05F3F71F04795880F97FB991F61F0B5
:1015E0009F3F79F087950895121613061406551F2C
:1015F000F2CF4695F1DF08C0161617061806991F98
:10160000F1CF86957105610508940895E894BB278C
:1016100066277727CB0197F908950E94200B0C9439
:10162000D30A0E94C50A38F00E94CC0A20F0952304
:1016300011F00C94BC0A0C94C20A11240C94070BF0
:101640000E94E40A70F3959FC1F3950F50E0551F77
:10165000629FF001729FBB27F00DB11D639FAA2707
:10166000F00DB11DAA1F649F6627B00DA11D661F56
:10167000829F2227B00DA11D621F739FB00DA11D77
:10168000621F839FA00D611D221F749F3327A00D31
:10169000611D231F849F600D211D822F762F6A2FCD
:1016A00011249F5750409AF0F1F088234AF0EE0F32
:1016B000FF1FBB1F661F771F881F91505040A9F75F
:1016C0009E3F510580F00C94BC0A0C94070B5F3FC1
:1016D000E4F3983ED4F3869577956795B795F7959B
:1016E000E7959F5FC1F7FE2B880F911D9695879513
:1016F00097F90895BB274A3031F4992322F4BDE2CB
:10170000909581959F4F0C94860BBB27FB01552725
:10171000AA27880F991FAA1FA41710F0A41B83954E
:101720005051B9F7A05DAA3308F0A95DA1930097C5
:1017300079F7B111B1931192CB010C949F0BDC019D
:10174000FC01672F71917723E1F7329704C07C91F8
:101750006D9370836291AE17BF07C8F30895F89434
:02176000FFCFB9
:10176200A00000DC427B14E942A4F0F6425CCF0206
:10177200430A970A437BD412435C8F1B435CCF24FA
:1017820043299C2E43000039430000444366A64F80
:101792004300005C437B146943A4F07643A4D082E7
:1017A200430A978A437BD49243A4909B43A4D0A438
:1017B20043719DAE43B8FEB8430000C44366A6CF52
:1017C200430000DC437B14E943A4F0F64300D0025B
:1017D20044AE970A441FD5124400901B44A4D0245F
:1017E20044719D2E445CFF38445CFF43440AA74F7A
:1017F2004400005C445475726E696E67204C454427
:10180200206F6666004C454420646573747275638C
:10181200746F722063616C6C6564005475726E69DA
:101822006E67204C454420726564005475726E697F
:101832006E67204C454420677265656E005365747F
:1018420074696E67204C454420444452004C454420
:1018520020636F6E7374727563746F722063616C50
:101862006C656400496E697469616C697A696E6756
:10187200204D6F746F72004D6F746F723A3A676FDA
:10188200466F72776172642829004D6F746F723AE5
:101892003A676F4261636B776172642829004D6F0A
:1018A200746F723A3A73746F702829004D6F746FB7
:1018B200722064657374727563746F722063616CF5
:1018C2006C6564004D6F746F723A3A7370696E4C56
:1018D2006566742829004D6F746F723A3A737069A5
:1018E2006E52696768742829006E6F74653A200029
:1018F2004F43523A2000496E697469616C697A6992
:101902006E672054696D65720053656C656374651A
:10191200642054494D4552300053656C65637465CB
:10192200642054494D4552310053656C65637465BA
:10193200642054494D4552320053657474696E6790
:101942002054696D6572206D6F646520746F20503C
:10195200574D0053657474696E67205072657363E6
:10196200616C6572203A200053657474696E672059
:1019720050574D206D6F6465203A20506861736541
:1019820020436F72726563740053657474696E6785
:101992002050574D206D6F6465203A204661737464
:1019A2000053657474696E672054696D6572206DA9
:1019B2006F646520746F20435443005365747469E7
:1019C2006E67204354432054696D657220696E74BA
:1019D2006572727570747320666F722054494D453A
:1019E20052300053657474696E6720435443205427
:1019F200696D657220696E74657272757074732098
:101A0200666F722054494D455231005365747469B2
:101A12006E67204354432054696D657220696E7469
:101A22006572727570747320666F722054494D45E9
:101A320052320053657474696E67204F43524120DD
:101A42007769746820636F6D7061726556616C7539
:101A520065203A200053657474696E67204F4352C3
:101A620042207769746820636F6D70617265566198
:101A72006C7565203A20005374617274696E672038
:101A820054494D45520053746F7070696E6720540B
:101A9200494D45520054696D6572206465737472D4
:101AA2007563746F722063616C6C656400496E6962
:101AB20074204C65667420776865656C0A00496E0F
:101AC200697420526967687420776865656C0A00DA
:101AD20070696E446972656374696F6E203A2000A2
:101AE2004C65667420776865656C2061646A7573FD
:101AF20074537065656456616C75652077697468A6
:101B020020737065656456616C7565203A200052D9
:101B12006967687420776865656C2061646A7573AB
:101B220074537065656456616C7565207769746875
:101B320020737065656456616C7565203A20004CAF
:101B420065667420776865656C20676F466F72778B
:101B52006172642077697468207370656564566188
:101B62006C7565203A200052696768742077686551
:101B7200656C20676F466F72776172642077697453
:101B82006820737065656456616C7565203A200043
:101B9200576865656C20676F4261636B7761726439
:101BA200207769746820737065656456616C756529
:101BB200203A2000576865656C2073746F70005777
:101BC2006865656C2064657374727563746F7220E6
:081BD20063616C6C65640000A6
:00000001FF
