:100000000C943F000C9467000C9467000C946700FC
:100010000C9467000C9467000C9467000C946700C4
:100020000C9467000C9467000C9467000C946700B4
:100030000C9467000C9467000C9467000C946700A4
:100040000C9467000C9467000C9467000C94670094
:100050000C9467000C9467000C9467000C94670084
:100060000C9467000C9467000C9467000C94670074
:100070000C9467000C9467000C946700DE03112455
:100080001FBECFEFD8E0DEBFCDBF11E0A0E0B1E0F2
:10009000EEE3F8E002C005900D92A237B107D9F760
:1000A00021E0A2E7B1E001C01D92A337B207E1F75A
:1000B00010E0CFE3D0E004C02197FE010E94E203EC
:1000C000CE33D107C9F70E9476030C941D040C941B
:1000D0000000CF93DF93EC0181E091E00E943903AF
:1000E000E881F98140812C8181E090E0BC0102C06F
:1000F000660F771F2A95E2F79B0120952423208322
:10010000E881F98120813D8101C0880F3A95EAF7A5
:10011000809582238083DF91CF910895CF93DF93E1
:10012000EC0181E191E00E943903CE010E94690057
:10013000EA81FB8140818C8121E030E0B90102C07D
:10014000660F771F8A95E2F7CB019D8101C0220FD0
:100150009A95EAF7822B809584238083DF91CF9153
:100160000895CF93DF93EC0187E291E00E94390379
:10017000E881F98120814C8181E090E0BC0102C0DE
:10018000660F771F4A95E2F7262B2083E881F981D5
:1001900020813D8101C0880F3A95EAF7809582233E
:1001A0008083DF91CF910895CF93DF93EC0187E3B4
:1001B00091E00E943903E881F98140818C8121E03E
:1001C00030E0B90102C0660F771F8A95E2F7CB01D4
:1001D000809584238083E881F98180819D8101C09D
:1001E000220F9A95EAF7822B8083DF91CF910895B1
:1001F000CF93DF93D82FC92F0E94B1008FE697E1EC
:100200000197F1F700C000008D2F9C2F0E94D400B1
:100210008FE697E10197F1F700C00000DF91CF91E1
:100220000895CF93DF93EC0189E491E00E943903B4
:100230008881998182329105E1F481E290E09B838B
:100240008A83EA81FB8140818C8121E030E0B90121
:1002500002C0660F771F8A95E2F7CB019D8101C02E
:10026000220F9A95EAF7822B842B8083DF91CF911E
:1002700008958532910519F484E290E0E0CF883248
:10028000910519F487E290E0DACF8B97D1F68AE2F4
:1002900090E0D5CFCF93DF93EC01798368834C83D3
:1002A0002D8389E591E00E943903CE01DF91CF9142
:1002B0000C941101089580EA809300011092B90016
:1002C00080E28093B8000895FC0180E88083CF012C
:1002D0000C945B01843028F4880F806A80930001BD
:1002E00008958FEF0895FA0194EA24E89093BC00F2
:1002F0008091BC0087FFFCCF809100018093BB0000
:100300002093BC008091BC0087FFFCCF8091B90096
:10031000883161F784EA8093BC008091BC0087FF3C
:10032000FCCF809100018093BB0084E88093BC00E7
:100330008091BC0087FFFCCF7093BB0084E8809362
:10034000BC008091BC0087FFFCCF6093BB0084E8B9
:100350008093BC008091BC0087FFFCCF8091BC00E3
:1003600087FFFCCF84EA8093BC008091BC0087FFAC
:10037000FCCF809100018F5F8093BB0084E8809365
:10038000BC008091BC0087FFFCCF84E88093BC0058
:100390008091BC0087FFFCCF8091BB00808384E903
:1003A0008093BC0080E0089594EA34E89093BC0008
:1003B0008091BC0087FFFCCF809100018093BB003F
:1003C0003093BC008091BC0087FFFCCF8091B900C6
:1003D000883161F784EA8093BC008091BC0087FF7C
:1003E000FCCF809100018093BB0084E88093BC0027
:1003F0008091BC0087FFFCCF7093BB0084E88093A2
:10040000BC008091BC0087FFFCCF6093BB0084E8F8
:100410008093BC008091BC0087FFFCCF84EA80936E
:10042000BC008091BC0087FFFCCF809100018F5FF2
:100430008093BB0084E88093BC008091BC0087FF60
:10044000FCCF84EC211105C084E98093BC0080E0DE
:100450000895213009F484E88093BC009091BC0099
:1004600097FFFCCFFA019091BB0091932150AF010F
:10047000E9CF94EA24E89093BC008091BC0087FF08
:10048000FCCF809100018093BB002093BC00809141
:10049000BC0087FFFCCF8091B900883161F784EA06
:1004A0008093BC008091BC0087FFFCCF809100014D
:1004B0008093BB0084E88093BC008091BC0087FFE0
:1004C000FCCF7093BB0084E88093BC008091BC009B
:1004D00087FFFCCF6093BB0084E88093BC008091D1
:1004E000BC0087FFFCCF4093BB0084E88093BC0036
:1004F0008091BC0087FFFCCF84E98093BC0080E042
:100500000895CF93DF93FB01260F372F311DEC01A8
:1005100088818150990B862B9F2B2817390718F05B
:100520009C012F5F3F4F822F8E1B24EA34E82093DB
:10053000BC009091BC0097FFFCCF9091000190937C
:10054000BB003093BC009091BC0097FFFCCF909112
:10055000B900983161F794EA9093BC009091BC0087
:1005600097FFFCCF909100019093BB0094E890938B
:10057000BC009091BC0097FFFCCFF093BB0094E8C7
:100580009093BC009091BC0097FFFCCFE093BB0020
:1005900094E89093BC009091BC0097FFFCCF982FFB
:1005A00024E8911106C094E99093BC00DF91CF91AB
:1005B0000895DA013D913093BB002093BC00309147
:1005C000BC0037FFFCCF9150AD01EBCFDF92EF9233
:1005D000FF920F931F93CF93DF93D82ED92F7B01D8
:1005E0008A01C22F2C2FA801B7018D2D9D2F0E94AB
:1005F0008102E80EF11CC81B080F111DC111F2CFBA
:1006000080E0DF91CF911F910F91FF90EF90DF90ED
:1006100008951092C5008FEC8093C4001092C00022
:1006200088E18093C1008EE08093C200089580919C
:10063000C00085FFFCCF6093C60008950F931F9301
:10064000CF93DF93182F092FEB016991611105C03A
:10065000DF91CF911F910F910895812F902F0E94CC
:100660001703F3CF8091C00087FFFCCF8091C600B5
:100670000895BC0182E791E00E941E0360E771E0EB
:1006800082E791E00C941E03CF93DF9300D000D05B
:1006900000D0CDB7DEB74AE0BE016F5F7F4F0E944A
:1006A000E803BE016F5F7F4F82E791E00E941E0367
:1006B00060E771E082E791E00E941E030F900F90C7
:1006C0000F900F900F900F90DF91CF910895CF93DF
:1006D000DF93D62FC72FBC0182E791E00E941E0353
:1006E0008D2F9C2FDF91CF910C944403CDB7DEB7B3
:1006F000C850D1400FB6F894DEBF0FBECDBF5E012B
:1007000081E0A80EB81E21E040E062E270E0C50181
:100710000E944A016E0198EFC91A9EEFD90AC601DC
:100720000E9409034E01E9EF8E1AEEEF9E0AC40102
:100730000E946401C5010E94B100C6010E943203FB
:10074000182F8983C6010E943203082F8A8382E012
:10075000E82EF12CE016F10660F0CE0101966C0156
:10076000E12CF12CE016F106A1F4C5010E94D400A1
:10077000FFCFE11491E0F90681F3C6010E94320334
:10078000FE013196EE0DFF1D8083FFEFEF1AFF0A89
:10079000E1CFE114E1E0FE0641F3F60141916F0182
:1007A000B701C4010E9439028FE097E20197F1F787
:1007B00000C000009FEFE91AF90AD4CF82E791E068
:1007C0000C940903EE0FFF1F0590F491E02D09949E
:1007D000BB274A3031F4992322F4BDE290958195EC
:1007E0009F4F0C94F403BB27FB015527AA27880FC2
:1007F000991FAA1FA41710F0A41B83955051B9F795
:10080000A05DAA3308F0A95DA193009779F7B11113
:10081000B1931192CB010C940D04DC01FC01672F04
:1008200071917723E1F7329704C07C916D937083C7
:0E0830006291AE17BF07C8F30895F894FFCF8A
:10083E00A05475726E696E67204C4544206F6666D3
:10084E00004C45442064657374727563746F722036
:10085E0063616C6C6564005475726E696E67204CD2
:10086E00454420726564005475726E696E67204C43
:10087E00454420677265656E0053657474696E67D2
:10088E00204C454420444452004C454420636F6E36
:10089E007374727563746F722063616C6C6564003F
:0208AE000A003E
:00000001FF
